{
	"data": {
		"bytecode": {
			"linkReferences": {},
			"object": "60806040526040516200116d3803806200116d8339818101604052810190620000299190620001db565b81600090805190602001906200004192919062000051565b5080600181905550505062000395565b828054828255906000526020600020908101928215620000cd579160200282015b82811115620000cc5782518260006101000a81548173ffffffffffffffffffffffffffffffffffffffff021916908373ffffffffffffffffffffffffffffffffffffffff1602179055509160200191906001019062000072565b5b509050620000dc9190620000e0565b5090565b5b80821115620000fb576000816000905550600101620000e1565b5090565b60006200011662000110846200026a565b62000241565b905080838252602082019050828560208602820111156200013c576200013b62000341565b5b60005b858110156200017057816200015588826200017a565b8452602084019350602083019250506001810190506200013f565b5050509392505050565b6000815190506200018b8162000361565b92915050565b600082601f830112620001a957620001a86200033c565b5b8151620001bb848260208601620000ff565b91505092915050565b600081519050620001d5816200037b565b92915050565b60008060408385031215620001f557620001f46200034b565b5b600083015167ffffffffffffffff81111562000216576200021562000346565b5b620002248582860162000191565b92505060206200023785828601620001c4565b9150509250929050565b60006200024d62000260565b90506200025b8282620002d7565b919050565b6000604051905090565b600067ffffffffffffffff8211156200028857620002876200030d565b5b602082029050602081019050919050565b6000620002a682620002ad565b9050919050565b600073ffffffffffffffffffffffffffffffffffffffff82169050919050565b6000819050919050565b620002e28262000350565b810181811067ffffffffffffffff821117156200030457620003036200030d565b5b80604052505050565b7f4e487b7100000000000000000000000000000000000000000000000000000000600052604160045260246000fd5b600080fd5b600080fd5b600080fd5b600080fd5b6000601f19601f8301169050919050565b6200036c8162000299565b81146200037857600080fd5b50565b6200038681620002cd565b81146200039257600080fd5b50565b610dc880620003a56000396000f3fe608060405234801561001057600080fd5b50600436106100625760003560e01c80631703a018146100675780634c12fa47146100855780639377d711146100a1578063d1c68d1e146100d5578063d3650fb814610105578063ffabc67314610135575b600080fd5b61006f610165565b60405161007c9190610ac9565b60405180910390f35b61009f600480360381019061009a91906108bb565b61016b565b005b6100bb60048036038101906100b6919061088e565b610344565b6040516100cc959493929190610ae4565b60405180910390f35b6100ef60048036038101906100ea919061088e565b6103a7565b6040516100fc9190610a47565b60405180910390f35b61011f600480360381019061011a919061088e565b6107a1565b60405161012c9190610a11565b60405180910390f35b61014f600480360381019061014a919061084e565b6107e0565b60405161015c9190610a2c565b60405180910390f35b60015481565b6000805b600080549050811015610206573373ffffffffffffffffffffffffffffffffffffffff16600082815481106101a7576101a6610c63565b5b9060005260206000200160009054906101000a900473ffffffffffffffffffffffffffffffffffffffff1673ffffffffffffffffffffffffffffffffffffffff1614156101f357600191505b80806101fe90610beb565b91505061016f565b5080610247576040517f08c379a000000000000000000000000000000000000000000000000000000000815260040161023e90610aa9565b60405180910390fd5b6040518060a0016040528060025481526020018481526020018373ffffffffffffffffffffffffffffffffffffffff1681526020016000815260200160001515815250600360006002548152602001908152602001600020600082015181600001556020820151816001015560408201518160020160006101000a81548173ffffffffffffffffffffffffffffffffffffffff021916908373ffffffffffffffffffffffffffffffffffffffff1602179055506060820151816003015560808201518160040160006101000a81548160ff0219169083151502179055509050506002600081548092919061033a90610beb565b9190505550505050565b60036020528060005260406000206000915090508060000154908060010154908060020160009054906101000a900473ffffffffffffffffffffffffffffffffffffffff16908060030154908060040160009054906101000a900460ff16905085565b60606000805b600080549050811015610444573373ffffffffffffffffffffffffffffffffffffffff16600082815481106103e5576103e4610c63565b5b9060005260206000200160009054906101000a900473ffffffffffffffffffffffffffffffffffffffff1673ffffffffffffffffffffffffffffffffffffffff16141561043157600191505b808061043c90610beb565b9150506103ad565b5080610485576040517f08c379a000000000000000000000000000000000000000000000000000000000815260040161047c90610aa9565b60405180910390fd5b600015156003600085815260200190815260200160002060040160009054906101000a900460ff161515146104ef576040517f08c379a00000000000000000000000000000000000000000000000000000000081526004016104e690610a69565b60405180910390fd5b60001515600460003373ffffffffffffffffffffffffffffffffffffffff1673ffffffffffffffffffffffffffffffffffffffff168152602001908152602001600020600085815260200190815260200160002060009054906101000a900460ff16151514156105ef576001600460003373ffffffffffffffffffffffffffffffffffffffff1673ffffffffffffffffffffffffffffffffffffffff168152602001908152602001600020600085815260200190815260200160002060006101000a81548160ff0219169083151502179055506003600084815260200190815260200160002060030160008154809291906105e990610beb565b91905055505b60015460036000858152602001908152602001600020600301541061077f5760016003600085815260200190815260200160002060040160006101000a81548160ff02191690831515021790555060006003600085815260200190815260200160002060020160009054906101000a900473ffffffffffffffffffffffffffffffffffffffff16905060006003600086815260200190815260200160002060010154905060008273ffffffffffffffffffffffffffffffffffffffff16826040516106b9906109fc565b60006040518083038185875af1925050503d80600081146106f6576040519150601f19603f3d011682016040523d82523d6000602084013e6106fb565b606091505b505090508061073f576040517f08c379a000000000000000000000000000000000000000000000000000000000815260040161073690610a89565b60405180910390fd5b6040518060400160405280600c81526020017f46756e6473206d6f7665642e0000000000000000000000000000000000000000815250945050505061079b565b604051806060016040528060278152602001610d6c6027913991505b50919050565b600081815481106107b157600080fd5b906000526020600020016000915054906101000a900473ffffffffffffffffffffffffffffffffffffffff1681565b60046020528160005260406000206020528060005260406000206000915091509054906101000a900460ff1681565b60008135905061081e81610d26565b92915050565b60008135905061083381610d3d565b92915050565b60008135905061084881610d54565b92915050565b6000806040838503121561086557610864610c92565b5b60006108738582860161080f565b925050602061088485828601610839565b9150509250929050565b6000602082840312156108a4576108a3610c92565b5b60006108b284828501610839565b91505092915050565b600080604083850312156108d2576108d1610c92565b5b60006108e085828601610839565b92505060206108f185828601610824565b9150509250929050565b61090481610b70565b82525050565b61091381610b5e565b82525050565b61092281610b82565b82525050565b600061093382610b37565b61093d8185610b4d565b935061094d818560208601610bb8565b61095681610c97565b840191505092915050565b600061096e601e83610b4d565b915061097982610ca8565b602082019050919050565b6000610991601b83610b4d565b915061099c82610cd1565b602082019050919050565b60006109b4601583610b4d565b91506109bf82610cfa565b602082019050919050565b60006109d7600083610b42565b91506109e282610d23565b600082019050919050565b6109f681610bae565b82525050565b6000610a07826109ca565b9150819050919050565b6000602082019050610a26600083018461090a565b92915050565b6000602082019050610a416000830184610919565b92915050565b60006020820190508181036000830152610a618184610928565b905092915050565b60006020820190508181036000830152610a8281610961565b9050919050565b60006020820190508181036000830152610aa281610984565b9050919050565b60006020820190508181036000830152610ac2816109a7565b9050919050565b6000602082019050610ade60008301846109ed565b92915050565b600060a082019050610af960008301886109ed565b610b0660208301876109ed565b610b1360408301866108fb565b610b2060608301856109ed565b610b2d6080830184610919565b9695505050505050565b600081519050919050565b600081905092915050565b600082825260208201905092915050565b6000610b6982610b8e565b9050919050565b6000610b7b82610b8e565b9050919050565b60008115159050919050565b600073ffffffffffffffffffffffffffffffffffffffff82169050919050565b6000819050919050565b60005b83811015610bd6578082015181840152602081019050610bbb565b83811115610be5576000848401525b50505050565b6000610bf682610bae565b91507fffffffffffffffffffffffffffffffffffffffffffffffffffffffffffffffff821415610c2957610c28610c34565b5b600182019050919050565b7f4e487b7100000000000000000000000000000000000000000000000000000000600052601160045260246000fd5b7f4e487b7100000000000000000000000000000000000000000000000000000000600052603260045260246000fd5b600080fd5b6000601f19601f8301169050919050565b7f7472616e736665722068617320616c7265616479206265656e2073656e740000600082015250565b7f4d6f6e6579206e6f742073656e7420746f207468652075736572210000000000600082015250565b7f6f6e6c7920617070726f76657220616c6c6f7765640000000000000000000000600082015250565b50565b610d2f81610b5e565b8114610d3a57600080fd5b50565b610d4681610b70565b8114610d5157600080fd5b50565b610d5d81610bae565b8114610d6857600080fd5b5056fe50656e64696e67207369676e6174757265732066726f6d206f7468657220757365727320796574a264697066735822122021f895719a0d09e80b52e84de10a6a4965284155558099ff51b1d2f2d69df32464736f6c63430008070033",
			"opcodes": "PUSH1 0x80 PUSH1 0x40 MSTORE PUSH1 0x40 MLOAD PUSH3 0x116D CODESIZE SUB DUP1 PUSH3 0x116D DUP4 CODECOPY DUP2 DUP2 ADD PUSH1 0x40 MSTORE DUP2 ADD SWAP1 PUSH3 0x29 SWAP2 SWAP1 PUSH3 0x1DB JUMP JUMPDEST DUP2 PUSH1 0x0 SWAP1 DUP1 MLOAD SWAP1 PUSH1 0x20 ADD SWAP1 PUSH3 0x41 SWAP3 SWAP2 SWAP1 PUSH3 0x51 JUMP JUMPDEST POP DUP1 PUSH1 0x1 DUP2 SWAP1 SSTORE POP POP POP PUSH3 0x395 JUMP JUMPDEST DUP3 DUP1 SLOAD DUP3 DUP3 SSTORE SWAP1 PUSH1 0x0 MSTORE PUSH1 0x20 PUSH1 0x0 KECCAK256 SWAP1 DUP2 ADD SWAP3 DUP3 ISZERO PUSH3 0xCD JUMPI SWAP2 PUSH1 0x20 MUL DUP3 ADD JUMPDEST DUP3 DUP2 GT ISZERO PUSH3 0xCC JUMPI DUP3 MLOAD DUP3 PUSH1 0x0 PUSH2 0x100 EXP DUP2 SLOAD DUP2 PUSH20 0xFFFFFFFFFFFFFFFFFFFFFFFFFFFFFFFFFFFFFFFF MUL NOT AND SWAP1 DUP4 PUSH20 0xFFFFFFFFFFFFFFFFFFFFFFFFFFFFFFFFFFFFFFFF AND MUL OR SWAP1 SSTORE POP SWAP2 PUSH1 0x20 ADD SWAP2 SWAP1 PUSH1 0x1 ADD SWAP1 PUSH3 0x72 JUMP JUMPDEST JUMPDEST POP SWAP1 POP PUSH3 0xDC SWAP2 SWAP1 PUSH3 0xE0 JUMP JUMPDEST POP SWAP1 JUMP JUMPDEST JUMPDEST DUP1 DUP3 GT ISZERO PUSH3 0xFB JUMPI PUSH1 0x0 DUP2 PUSH1 0x0 SWAP1 SSTORE POP PUSH1 0x1 ADD PUSH3 0xE1 JUMP JUMPDEST POP SWAP1 JUMP JUMPDEST PUSH1 0x0 PUSH3 0x116 PUSH3 0x110 DUP5 PUSH3 0x26A JUMP JUMPDEST PUSH3 0x241 JUMP JUMPDEST SWAP1 POP DUP1 DUP4 DUP3 MSTORE PUSH1 0x20 DUP3 ADD SWAP1 POP DUP3 DUP6 PUSH1 0x20 DUP7 MUL DUP3 ADD GT ISZERO PUSH3 0x13C JUMPI PUSH3 0x13B PUSH3 0x341 JUMP JUMPDEST JUMPDEST PUSH1 0x0 JUMPDEST DUP6 DUP2 LT ISZERO PUSH3 0x170 JUMPI DUP2 PUSH3 0x155 DUP9 DUP3 PUSH3 0x17A JUMP JUMPDEST DUP5 MSTORE PUSH1 0x20 DUP5 ADD SWAP4 POP PUSH1 0x20 DUP4 ADD SWAP3 POP POP PUSH1 0x1 DUP2 ADD SWAP1 POP PUSH3 0x13F JUMP JUMPDEST POP POP POP SWAP4 SWAP3 POP POP POP JUMP JUMPDEST PUSH1 0x0 DUP2 MLOAD SWAP1 POP PUSH3 0x18B DUP2 PUSH3 0x361 JUMP JUMPDEST SWAP3 SWAP2 POP POP JUMP JUMPDEST PUSH1 0x0 DUP3 PUSH1 0x1F DUP4 ADD SLT PUSH3 0x1A9 JUMPI PUSH3 0x1A8 PUSH3 0x33C JUMP JUMPDEST JUMPDEST DUP2 MLOAD PUSH3 0x1BB DUP5 DUP3 PUSH1 0x20 DUP7 ADD PUSH3 0xFF JUMP JUMPDEST SWAP2 POP POP SWAP3 SWAP2 POP POP JUMP JUMPDEST PUSH1 0x0 DUP2 MLOAD SWAP1 POP PUSH3 0x1D5 DUP2 PUSH3 0x37B JUMP JUMPDEST SWAP3 SWAP2 POP POP JUMP JUMPDEST PUSH1 0x0 DUP1 PUSH1 0x40 DUP4 DUP6 SUB SLT ISZERO PUSH3 0x1F5 JUMPI PUSH3 0x1F4 PUSH3 0x34B JUMP JUMPDEST JUMPDEST PUSH1 0x0 DUP4 ADD MLOAD PUSH8 0xFFFFFFFFFFFFFFFF DUP2 GT ISZERO PUSH3 0x216 JUMPI PUSH3 0x215 PUSH3 0x346 JUMP JUMPDEST JUMPDEST PUSH3 0x224 DUP6 DUP3 DUP7 ADD PUSH3 0x191 JUMP JUMPDEST SWAP3 POP POP PUSH1 0x20 PUSH3 0x237 DUP6 DUP3 DUP7 ADD PUSH3 0x1C4 JUMP JUMPDEST SWAP2 POP POP SWAP3 POP SWAP3 SWAP1 POP JUMP JUMPDEST PUSH1 0x0 PUSH3 0x24D PUSH3 0x260 JUMP JUMPDEST SWAP1 POP PUSH3 0x25B DUP3 DUP3 PUSH3 0x2D7 JUMP JUMPDEST SWAP2 SWAP1 POP JUMP JUMPDEST PUSH1 0x0 PUSH1 0x40 MLOAD SWAP1 POP SWAP1 JUMP JUMPDEST PUSH1 0x0 PUSH8 0xFFFFFFFFFFFFFFFF DUP3 GT ISZERO PUSH3 0x288 JUMPI PUSH3 0x287 PUSH3 0x30D JUMP JUMPDEST JUMPDEST PUSH1 0x20 DUP3 MUL SWAP1 POP PUSH1 0x20 DUP2 ADD SWAP1 POP SWAP2 SWAP1 POP JUMP JUMPDEST PUSH1 0x0 PUSH3 0x2A6 DUP3 PUSH3 0x2AD JUMP JUMPDEST SWAP1 POP SWAP2 SWAP1 POP JUMP JUMPDEST PUSH1 0x0 PUSH20 0xFFFFFFFFFFFFFFFFFFFFFFFFFFFFFFFFFFFFFFFF DUP3 AND SWAP1 POP SWAP2 SWAP1 POP JUMP JUMPDEST PUSH1 0x0 DUP2 SWAP1 POP SWAP2 SWAP1 POP JUMP JUMPDEST PUSH3 0x2E2 DUP3 PUSH3 0x350 JUMP JUMPDEST DUP2 ADD DUP2 DUP2 LT PUSH8 0xFFFFFFFFFFFFFFFF DUP3 GT OR ISZERO PUSH3 0x304 JUMPI PUSH3 0x303 PUSH3 0x30D JUMP JUMPDEST JUMPDEST DUP1 PUSH1 0x40 MSTORE POP POP POP JUMP JUMPDEST PUSH32 0x4E487B7100000000000000000000000000000000000000000000000000000000 PUSH1 0x0 MSTORE PUSH1 0x41 PUSH1 0x4 MSTORE PUSH1 0x24 PUSH1 0x0 REVERT JUMPDEST PUSH1 0x0 DUP1 REVERT JUMPDEST PUSH1 0x0 DUP1 REVERT JUMPDEST PUSH1 0x0 DUP1 REVERT JUMPDEST PUSH1 0x0 DUP1 REVERT JUMPDEST PUSH1 0x0 PUSH1 0x1F NOT PUSH1 0x1F DUP4 ADD AND SWAP1 POP SWAP2 SWAP1 POP JUMP JUMPDEST PUSH3 0x36C DUP2 PUSH3 0x299 JUMP JUMPDEST DUP2 EQ PUSH3 0x378 JUMPI PUSH1 0x0 DUP1 REVERT JUMPDEST POP JUMP JUMPDEST PUSH3 0x386 DUP2 PUSH3 0x2CD JUMP JUMPDEST DUP2 EQ PUSH3 0x392 JUMPI PUSH1 0x0 DUP1 REVERT JUMPDEST POP JUMP JUMPDEST PUSH2 0xDC8 DUP1 PUSH3 0x3A5 PUSH1 0x0 CODECOPY PUSH1 0x0 RETURN INVALID PUSH1 0x80 PUSH1 0x40 MSTORE CALLVALUE DUP1 ISZERO PUSH2 0x10 JUMPI PUSH1 0x0 DUP1 REVERT JUMPDEST POP PUSH1 0x4 CALLDATASIZE LT PUSH2 0x62 JUMPI PUSH1 0x0 CALLDATALOAD PUSH1 0xE0 SHR DUP1 PUSH4 0x1703A018 EQ PUSH2 0x67 JUMPI DUP1 PUSH4 0x4C12FA47 EQ PUSH2 0x85 JUMPI DUP1 PUSH4 0x9377D711 EQ PUSH2 0xA1 JUMPI DUP1 PUSH4 0xD1C68D1E EQ PUSH2 0xD5 JUMPI DUP1 PUSH4 0xD3650FB8 EQ PUSH2 0x105 JUMPI DUP1 PUSH4 0xFFABC673 EQ PUSH2 0x135 JUMPI JUMPDEST PUSH1 0x0 DUP1 REVERT JUMPDEST PUSH2 0x6F PUSH2 0x165 JUMP JUMPDEST PUSH1 0x40 MLOAD PUSH2 0x7C SWAP2 SWAP1 PUSH2 0xAC9 JUMP JUMPDEST PUSH1 0x40 MLOAD DUP1 SWAP2 SUB SWAP1 RETURN JUMPDEST PUSH2 0x9F PUSH1 0x4 DUP1 CALLDATASIZE SUB DUP2 ADD SWAP1 PUSH2 0x9A SWAP2 SWAP1 PUSH2 0x8BB JUMP JUMPDEST PUSH2 0x16B JUMP JUMPDEST STOP JUMPDEST PUSH2 0xBB PUSH1 0x4 DUP1 CALLDATASIZE SUB DUP2 ADD SWAP1 PUSH2 0xB6 SWAP2 SWAP1 PUSH2 0x88E JUMP JUMPDEST PUSH2 0x344 JUMP JUMPDEST PUSH1 0x40 MLOAD PUSH2 0xCC SWAP6 SWAP5 SWAP4 SWAP3 SWAP2 SWAP1 PUSH2 0xAE4 JUMP JUMPDEST PUSH1 0x40 MLOAD DUP1 SWAP2 SUB SWAP1 RETURN JUMPDEST PUSH2 0xEF PUSH1 0x4 DUP1 CALLDATASIZE SUB DUP2 ADD SWAP1 PUSH2 0xEA SWAP2 SWAP1 PUSH2 0x88E JUMP JUMPDEST PUSH2 0x3A7 JUMP JUMPDEST PUSH1 0x40 MLOAD PUSH2 0xFC SWAP2 SWAP1 PUSH2 0xA47 JUMP JUMPDEST PUSH1 0x40 MLOAD DUP1 SWAP2 SUB SWAP1 RETURN JUMPDEST PUSH2 0x11F PUSH1 0x4 DUP1 CALLDATASIZE SUB DUP2 ADD SWAP1 PUSH2 0x11A SWAP2 SWAP1 PUSH2 0x88E JUMP JUMPDEST PUSH2 0x7A1 JUMP JUMPDEST PUSH1 0x40 MLOAD PUSH2 0x12C SWAP2 SWAP1 PUSH2 0xA11 JUMP JUMPDEST PUSH1 0x40 MLOAD DUP1 SWAP2 SUB SWAP1 RETURN JUMPDEST PUSH2 0x14F PUSH1 0x4 DUP1 CALLDATASIZE SUB DUP2 ADD SWAP1 PUSH2 0x14A SWAP2 SWAP1 PUSH2 0x84E JUMP JUMPDEST PUSH2 0x7E0 JUMP JUMPDEST PUSH1 0x40 MLOAD PUSH2 0x15C SWAP2 SWAP1 PUSH2 0xA2C JUMP JUMPDEST PUSH1 0x40 MLOAD DUP1 SWAP2 SUB SWAP1 RETURN JUMPDEST PUSH1 0x1 SLOAD DUP2 JUMP JUMPDEST PUSH1 0x0 DUP1 JUMPDEST PUSH1 0x0 DUP1 SLOAD SWAP1 POP DUP2 LT ISZERO PUSH2 0x206 JUMPI CALLER PUSH20 0xFFFFFFFFFFFFFFFFFFFFFFFFFFFFFFFFFFFFFFFF AND PUSH1 0x0 DUP3 DUP2 SLOAD DUP2 LT PUSH2 0x1A7 JUMPI PUSH2 0x1A6 PUSH2 0xC63 JUMP JUMPDEST JUMPDEST SWAP1 PUSH1 0x0 MSTORE PUSH1 0x20 PUSH1 0x0 KECCAK256 ADD PUSH1 0x0 SWAP1 SLOAD SWAP1 PUSH2 0x100 EXP SWAP1 DIV PUSH20 0xFFFFFFFFFFFFFFFFFFFFFFFFFFFFFFFFFFFFFFFF AND PUSH20 0xFFFFFFFFFFFFFFFFFFFFFFFFFFFFFFFFFFFFFFFF AND EQ ISZERO PUSH2 0x1F3 JUMPI PUSH1 0x1 SWAP2 POP JUMPDEST DUP1 DUP1 PUSH2 0x1FE SWAP1 PUSH2 0xBEB JUMP JUMPDEST SWAP2 POP POP PUSH2 0x16F JUMP JUMPDEST POP DUP1 PUSH2 0x247 JUMPI PUSH1 0x40 MLOAD PUSH32 0x8C379A000000000000000000000000000000000000000000000000000000000 DUP2 MSTORE PUSH1 0x4 ADD PUSH2 0x23E SWAP1 PUSH2 0xAA9 JUMP JUMPDEST PUSH1 0x40 MLOAD DUP1 SWAP2 SUB SWAP1 REVERT JUMPDEST PUSH1 0x40 MLOAD DUP1 PUSH1 0xA0 ADD PUSH1 0x40 MSTORE DUP1 PUSH1 0x2 SLOAD DUP2 MSTORE PUSH1 0x20 ADD DUP5 DUP2 MSTORE PUSH1 0x20 ADD DUP4 PUSH20 0xFFFFFFFFFFFFFFFFFFFFFFFFFFFFFFFFFFFFFFFF AND DUP2 MSTORE PUSH1 0x20 ADD PUSH1 0x0 DUP2 MSTORE PUSH1 0x20 ADD PUSH1 0x0 ISZERO ISZERO DUP2 MSTORE POP PUSH1 0x3 PUSH1 0x0 PUSH1 0x2 SLOAD DUP2 MSTORE PUSH1 0x20 ADD SWAP1 DUP2 MSTORE PUSH1 0x20 ADD PUSH1 0x0 KECCAK256 PUSH1 0x0 DUP3 ADD MLOAD DUP2 PUSH1 0x0 ADD SSTORE PUSH1 0x20 DUP3 ADD MLOAD DUP2 PUSH1 0x1 ADD SSTORE PUSH1 0x40 DUP3 ADD MLOAD DUP2 PUSH1 0x2 ADD PUSH1 0x0 PUSH2 0x100 EXP DUP2 SLOAD DUP2 PUSH20 0xFFFFFFFFFFFFFFFFFFFFFFFFFFFFFFFFFFFFFFFF MUL NOT AND SWAP1 DUP4 PUSH20 0xFFFFFFFFFFFFFFFFFFFFFFFFFFFFFFFFFFFFFFFF AND MUL OR SWAP1 SSTORE POP PUSH1 0x60 DUP3 ADD MLOAD DUP2 PUSH1 0x3 ADD SSTORE PUSH1 0x80 DUP3 ADD MLOAD DUP2 PUSH1 0x4 ADD PUSH1 0x0 PUSH2 0x100 EXP DUP2 SLOAD DUP2 PUSH1 0xFF MUL NOT AND SWAP1 DUP4 ISZERO ISZERO MUL OR SWAP1 SSTORE POP SWAP1 POP POP PUSH1 0x2 PUSH1 0x0 DUP2 SLOAD DUP1 SWAP3 SWAP2 SWAP1 PUSH2 0x33A SWAP1 PUSH2 0xBEB JUMP JUMPDEST SWAP2 SWAP1 POP SSTORE POP POP POP POP JUMP JUMPDEST PUSH1 0x3 PUSH1 0x20 MSTORE DUP1 PUSH1 0x0 MSTORE PUSH1 0x40 PUSH1 0x0 KECCAK256 PUSH1 0x0 SWAP2 POP SWAP1 POP DUP1 PUSH1 0x0 ADD SLOAD SWAP1 DUP1 PUSH1 0x1 ADD SLOAD SWAP1 DUP1 PUSH1 0x2 ADD PUSH1 0x0 SWAP1 SLOAD SWAP1 PUSH2 0x100 EXP SWAP1 DIV PUSH20 0xFFFFFFFFFFFFFFFFFFFFFFFFFFFFFFFFFFFFFFFF AND SWAP1 DUP1 PUSH1 0x3 ADD SLOAD SWAP1 DUP1 PUSH1 0x4 ADD PUSH1 0x0 SWAP1 SLOAD SWAP1 PUSH2 0x100 EXP SWAP1 DIV PUSH1 0xFF AND SWAP1 POP DUP6 JUMP JUMPDEST PUSH1 0x60 PUSH1 0x0 DUP1 JUMPDEST PUSH1 0x0 DUP1 SLOAD SWAP1 POP DUP2 LT ISZERO PUSH2 0x444 JUMPI CALLER PUSH20 0xFFFFFFFFFFFFFFFFFFFFFFFFFFFFFFFFFFFFFFFF AND PUSH1 0x0 DUP3 DUP2 SLOAD DUP2 LT PUSH2 0x3E5 JUMPI PUSH2 0x3E4 PUSH2 0xC63 JUMP JUMPDEST JUMPDEST SWAP1 PUSH1 0x0 MSTORE PUSH1 0x20 PUSH1 0x0 KECCAK256 ADD PUSH1 0x0 SWAP1 SLOAD SWAP1 PUSH2 0x100 EXP SWAP1 DIV PUSH20 0xFFFFFFFFFFFFFFFFFFFFFFFFFFFFFFFFFFFFFFFF AND PUSH20 0xFFFFFFFFFFFFFFFFFFFFFFFFFFFFFFFFFFFFFFFF AND EQ ISZERO PUSH2 0x431 JUMPI PUSH1 0x1 SWAP2 POP JUMPDEST DUP1 DUP1 PUSH2 0x43C SWAP1 PUSH2 0xBEB JUMP JUMPDEST SWAP2 POP POP PUSH2 0x3AD JUMP JUMPDEST POP DUP1 PUSH2 0x485 JUMPI PUSH1 0x40 MLOAD PUSH32 0x8C379A000000000000000000000000000000000000000000000000000000000 DUP2 MSTORE PUSH1 0x4 ADD PUSH2 0x47C SWAP1 PUSH2 0xAA9 JUMP JUMPDEST PUSH1 0x40 MLOAD DUP1 SWAP2 SUB SWAP1 REVERT JUMPDEST PUSH1 0x0 ISZERO ISZERO PUSH1 0x3 PUSH1 0x0 DUP6 DUP2 MSTORE PUSH1 0x20 ADD SWAP1 DUP2 MSTORE PUSH1 0x20 ADD PUSH1 0x0 KECCAK256 PUSH1 0x4 ADD PUSH1 0x0 SWAP1 SLOAD SWAP1 PUSH2 0x100 EXP SWAP1 DIV PUSH1 0xFF AND ISZERO ISZERO EQ PUSH2 0x4EF JUMPI PUSH1 0x40 MLOAD PUSH32 0x8C379A000000000000000000000000000000000000000000000000000000000 DUP2 MSTORE PUSH1 0x4 ADD PUSH2 0x4E6 SWAP1 PUSH2 0xA69 JUMP JUMPDEST PUSH1 0x40 MLOAD DUP1 SWAP2 SUB SWAP1 REVERT JUMPDEST PUSH1 0x0 ISZERO ISZERO PUSH1 0x4 PUSH1 0x0 CALLER PUSH20 0xFFFFFFFFFFFFFFFFFFFFFFFFFFFFFFFFFFFFFFFF AND PUSH20 0xFFFFFFFFFFFFFFFFFFFFFFFFFFFFFFFFFFFFFFFF AND DUP2 MSTORE PUSH1 0x20 ADD SWAP1 DUP2 MSTORE PUSH1 0x20 ADD PUSH1 0x0 KECCAK256 PUSH1 0x0 DUP6 DUP2 MSTORE PUSH1 0x20 ADD SWAP1 DUP2 MSTORE PUSH1 0x20 ADD PUSH1 0x0 KECCAK256 PUSH1 0x0 SWAP1 SLOAD SWAP1 PUSH2 0x100 EXP SWAP1 DIV PUSH1 0xFF AND ISZERO ISZERO EQ ISZERO PUSH2 0x5EF JUMPI PUSH1 0x1 PUSH1 0x4 PUSH1 0x0 CALLER PUSH20 0xFFFFFFFFFFFFFFFFFFFFFFFFFFFFFFFFFFFFFFFF AND PUSH20 0xFFFFFFFFFFFFFFFFFFFFFFFFFFFFFFFFFFFFFFFF AND DUP2 MSTORE PUSH1 0x20 ADD SWAP1 DUP2 MSTORE PUSH1 0x20 ADD PUSH1 0x0 KECCAK256 PUSH1 0x0 DUP6 DUP2 MSTORE PUSH1 0x20 ADD SWAP1 DUP2 MSTORE PUSH1 0x20 ADD PUSH1 0x0 KECCAK256 PUSH1 0x0 PUSH2 0x100 EXP DUP2 SLOAD DUP2 PUSH1 0xFF MUL NOT AND SWAP1 DUP4 ISZERO ISZERO MUL OR SWAP1 SSTORE POP PUSH1 0x3 PUSH1 0x0 DUP5 DUP2 MSTORE PUSH1 0x20 ADD SWAP1 DUP2 MSTORE PUSH1 0x20 ADD PUSH1 0x0 KECCAK256 PUSH1 0x3 ADD PUSH1 0x0 DUP2 SLOAD DUP1 SWAP3 SWAP2 SWAP1 PUSH2 0x5E9 SWAP1 PUSH2 0xBEB JUMP JUMPDEST SWAP2 SWAP1 POP SSTORE POP JUMPDEST PUSH1 0x1 SLOAD PUSH1 0x3 PUSH1 0x0 DUP6 DUP2 MSTORE PUSH1 0x20 ADD SWAP1 DUP2 MSTORE PUSH1 0x20 ADD PUSH1 0x0 KECCAK256 PUSH1 0x3 ADD SLOAD LT PUSH2 0x77F JUMPI PUSH1 0x1 PUSH1 0x3 PUSH1 0x0 DUP6 DUP2 MSTORE PUSH1 0x20 ADD SWAP1 DUP2 MSTORE PUSH1 0x20 ADD PUSH1 0x0 KECCAK256 PUSH1 0x4 ADD PUSH1 0x0 PUSH2 0x100 EXP DUP2 SLOAD DUP2 PUSH1 0xFF MUL NOT AND SWAP1 DUP4 ISZERO ISZERO MUL OR SWAP1 SSTORE POP PUSH1 0x0 PUSH1 0x3 PUSH1 0x0 DUP6 DUP2 MSTORE PUSH1 0x20 ADD SWAP1 DUP2 MSTORE PUSH1 0x20 ADD PUSH1 0x0 KECCAK256 PUSH1 0x2 ADD PUSH1 0x0 SWAP1 SLOAD SWAP1 PUSH2 0x100 EXP SWAP1 DIV PUSH20 0xFFFFFFFFFFFFFFFFFFFFFFFFFFFFFFFFFFFFFFFF AND SWAP1 POP PUSH1 0x0 PUSH1 0x3 PUSH1 0x0 DUP7 DUP2 MSTORE PUSH1 0x20 ADD SWAP1 DUP2 MSTORE PUSH1 0x20 ADD PUSH1 0x0 KECCAK256 PUSH1 0x1 ADD SLOAD SWAP1 POP PUSH1 0x0 DUP3 PUSH20 0xFFFFFFFFFFFFFFFFFFFFFFFFFFFFFFFFFFFFFFFF AND DUP3 PUSH1 0x40 MLOAD PUSH2 0x6B9 SWAP1 PUSH2 0x9FC JUMP JUMPDEST PUSH1 0x0 PUSH1 0x40 MLOAD DUP1 DUP4 SUB DUP2 DUP6 DUP8 GAS CALL SWAP3 POP POP POP RETURNDATASIZE DUP1 PUSH1 0x0 DUP2 EQ PUSH2 0x6F6 JUMPI PUSH1 0x40 MLOAD SWAP2 POP PUSH1 0x1F NOT PUSH1 0x3F RETURNDATASIZE ADD AND DUP3 ADD PUSH1 0x40 MSTORE RETURNDATASIZE DUP3 MSTORE RETURNDATASIZE PUSH1 0x0 PUSH1 0x20 DUP5 ADD RETURNDATACOPY PUSH2 0x6FB JUMP JUMPDEST PUSH1 0x60 SWAP2 POP JUMPDEST POP POP SWAP1 POP DUP1 PUSH2 0x73F JUMPI PUSH1 0x40 MLOAD PUSH32 0x8C379A000000000000000000000000000000000000000000000000000000000 DUP2 MSTORE PUSH1 0x4 ADD PUSH2 0x736 SWAP1 PUSH2 0xA89 JUMP JUMPDEST PUSH1 0x40 MLOAD DUP1 SWAP2 SUB SWAP1 REVERT JUMPDEST PUSH1 0x40 MLOAD DUP1 PUSH1 0x40 ADD PUSH1 0x40 MSTORE DUP1 PUSH1 0xC DUP2 MSTORE PUSH1 0x20 ADD PUSH32 0x46756E6473206D6F7665642E0000000000000000000000000000000000000000 DUP2 MSTORE POP SWAP5 POP POP POP POP PUSH2 0x79B JUMP JUMPDEST PUSH1 0x40 MLOAD DUP1 PUSH1 0x60 ADD PUSH1 0x40 MSTORE DUP1 PUSH1 0x27 DUP2 MSTORE PUSH1 0x20 ADD PUSH2 0xD6C PUSH1 0x27 SWAP2 CODECOPY SWAP2 POP JUMPDEST POP SWAP2 SWAP1 POP JUMP JUMPDEST PUSH1 0x0 DUP2 DUP2 SLOAD DUP2 LT PUSH2 0x7B1 JUMPI PUSH1 0x0 DUP1 REVERT JUMPDEST SWAP1 PUSH1 0x0 MSTORE PUSH1 0x20 PUSH1 0x0 KECCAK256 ADD PUSH1 0x0 SWAP2 POP SLOAD SWAP1 PUSH2 0x100 EXP SWAP1 DIV PUSH20 0xFFFFFFFFFFFFFFFFFFFFFFFFFFFFFFFFFFFFFFFF AND DUP2 JUMP JUMPDEST PUSH1 0x4 PUSH1 0x20 MSTORE DUP2 PUSH1 0x0 MSTORE PUSH1 0x40 PUSH1 0x0 KECCAK256 PUSH1 0x20 MSTORE DUP1 PUSH1 0x0 MSTORE PUSH1 0x40 PUSH1 0x0 KECCAK256 PUSH1 0x0 SWAP2 POP SWAP2 POP SWAP1 SLOAD SWAP1 PUSH2 0x100 EXP SWAP1 DIV PUSH1 0xFF AND DUP2 JUMP JUMPDEST PUSH1 0x0 DUP2 CALLDATALOAD SWAP1 POP PUSH2 0x81E DUP2 PUSH2 0xD26 JUMP JUMPDEST SWAP3 SWAP2 POP POP JUMP JUMPDEST PUSH1 0x0 DUP2 CALLDATALOAD SWAP1 POP PUSH2 0x833 DUP2 PUSH2 0xD3D JUMP JUMPDEST SWAP3 SWAP2 POP POP JUMP JUMPDEST PUSH1 0x0 DUP2 CALLDATALOAD SWAP1 POP PUSH2 0x848 DUP2 PUSH2 0xD54 JUMP JUMPDEST SWAP3 SWAP2 POP POP JUMP JUMPDEST PUSH1 0x0 DUP1 PUSH1 0x40 DUP4 DUP6 SUB SLT ISZERO PUSH2 0x865 JUMPI PUSH2 0x864 PUSH2 0xC92 JUMP JUMPDEST JUMPDEST PUSH1 0x0 PUSH2 0x873 DUP6 DUP3 DUP7 ADD PUSH2 0x80F JUMP JUMPDEST SWAP3 POP POP PUSH1 0x20 PUSH2 0x884 DUP6 DUP3 DUP7 ADD PUSH2 0x839 JUMP JUMPDEST SWAP2 POP POP SWAP3 POP SWAP3 SWAP1 POP JUMP JUMPDEST PUSH1 0x0 PUSH1 0x20 DUP3 DUP5 SUB SLT ISZERO PUSH2 0x8A4 JUMPI PUSH2 0x8A3 PUSH2 0xC92 JUMP JUMPDEST JUMPDEST PUSH1 0x0 PUSH2 0x8B2 DUP5 DUP3 DUP6 ADD PUSH2 0x839 JUMP JUMPDEST SWAP2 POP POP SWAP3 SWAP2 POP POP JUMP JUMPDEST PUSH1 0x0 DUP1 PUSH1 0x40 DUP4 DUP6 SUB SLT ISZERO PUSH2 0x8D2 JUMPI PUSH2 0x8D1 PUSH2 0xC92 JUMP JUMPDEST JUMPDEST PUSH1 0x0 PUSH2 0x8E0 DUP6 DUP3 DUP7 ADD PUSH2 0x839 JUMP JUMPDEST SWAP3 POP POP PUSH1 0x20 PUSH2 0x8F1 DUP6 DUP3 DUP7 ADD PUSH2 0x824 JUMP JUMPDEST SWAP2 POP POP SWAP3 POP SWAP3 SWAP1 POP JUMP JUMPDEST PUSH2 0x904 DUP2 PUSH2 0xB70 JUMP JUMPDEST DUP3 MSTORE POP POP JUMP JUMPDEST PUSH2 0x913 DUP2 PUSH2 0xB5E JUMP JUMPDEST DUP3 MSTORE POP POP JUMP JUMPDEST PUSH2 0x922 DUP2 PUSH2 0xB82 JUMP JUMPDEST DUP3 MSTORE POP POP JUMP JUMPDEST PUSH1 0x0 PUSH2 0x933 DUP3 PUSH2 0xB37 JUMP JUMPDEST PUSH2 0x93D DUP2 DUP6 PUSH2 0xB4D JUMP JUMPDEST SWAP4 POP PUSH2 0x94D DUP2 DUP6 PUSH1 0x20 DUP7 ADD PUSH2 0xBB8 JUMP JUMPDEST PUSH2 0x956 DUP2 PUSH2 0xC97 JUMP JUMPDEST DUP5 ADD SWAP2 POP POP SWAP3 SWAP2 POP POP JUMP JUMPDEST PUSH1 0x0 PUSH2 0x96E PUSH1 0x1E DUP4 PUSH2 0xB4D JUMP JUMPDEST SWAP2 POP PUSH2 0x979 DUP3 PUSH2 0xCA8 JUMP JUMPDEST PUSH1 0x20 DUP3 ADD SWAP1 POP SWAP2 SWAP1 POP JUMP JUMPDEST PUSH1 0x0 PUSH2 0x991 PUSH1 0x1B DUP4 PUSH2 0xB4D JUMP JUMPDEST SWAP2 POP PUSH2 0x99C DUP3 PUSH2 0xCD1 JUMP JUMPDEST PUSH1 0x20 DUP3 ADD SWAP1 POP SWAP2 SWAP1 POP JUMP JUMPDEST PUSH1 0x0 PUSH2 0x9B4 PUSH1 0x15 DUP4 PUSH2 0xB4D JUMP JUMPDEST SWAP2 POP PUSH2 0x9BF DUP3 PUSH2 0xCFA JUMP JUMPDEST PUSH1 0x20 DUP3 ADD SWAP1 POP SWAP2 SWAP1 POP JUMP JUMPDEST PUSH1 0x0 PUSH2 0x9D7 PUSH1 0x0 DUP4 PUSH2 0xB42 JUMP JUMPDEST SWAP2 POP PUSH2 0x9E2 DUP3 PUSH2 0xD23 JUMP JUMPDEST PUSH1 0x0 DUP3 ADD SWAP1 POP SWAP2 SWAP1 POP JUMP JUMPDEST PUSH2 0x9F6 DUP2 PUSH2 0xBAE JUMP JUMPDEST DUP3 MSTORE POP POP JUMP JUMPDEST PUSH1 0x0 PUSH2 0xA07 DUP3 PUSH2 0x9CA JUMP JUMPDEST SWAP2 POP DUP2 SWAP1 POP SWAP2 SWAP1 POP JUMP JUMPDEST PUSH1 0x0 PUSH1 0x20 DUP3 ADD SWAP1 POP PUSH2 0xA26 PUSH1 0x0 DUP4 ADD DUP5 PUSH2 0x90A JUMP JUMPDEST SWAP3 SWAP2 POP POP JUMP JUMPDEST PUSH1 0x0 PUSH1 0x20 DUP3 ADD SWAP1 POP PUSH2 0xA41 PUSH1 0x0 DUP4 ADD DUP5 PUSH2 0x919 JUMP JUMPDEST SWAP3 SWAP2 POP POP JUMP JUMPDEST PUSH1 0x0 PUSH1 0x20 DUP3 ADD SWAP1 POP DUP2 DUP2 SUB PUSH1 0x0 DUP4 ADD MSTORE PUSH2 0xA61 DUP2 DUP5 PUSH2 0x928 JUMP JUMPDEST SWAP1 POP SWAP3 SWAP2 POP POP JUMP JUMPDEST PUSH1 0x0 PUSH1 0x20 DUP3 ADD SWAP1 POP DUP2 DUP2 SUB PUSH1 0x0 DUP4 ADD MSTORE PUSH2 0xA82 DUP2 PUSH2 0x961 JUMP JUMPDEST SWAP1 POP SWAP2 SWAP1 POP JUMP JUMPDEST PUSH1 0x0 PUSH1 0x20 DUP3 ADD SWAP1 POP DUP2 DUP2 SUB PUSH1 0x0 DUP4 ADD MSTORE PUSH2 0xAA2 DUP2 PUSH2 0x984 JUMP JUMPDEST SWAP1 POP SWAP2 SWAP1 POP JUMP JUMPDEST PUSH1 0x0 PUSH1 0x20 DUP3 ADD SWAP1 POP DUP2 DUP2 SUB PUSH1 0x0 DUP4 ADD MSTORE PUSH2 0xAC2 DUP2 PUSH2 0x9A7 JUMP JUMPDEST SWAP1 POP SWAP2 SWAP1 POP JUMP JUMPDEST PUSH1 0x0 PUSH1 0x20 DUP3 ADD SWAP1 POP PUSH2 0xADE PUSH1 0x0 DUP4 ADD DUP5 PUSH2 0x9ED JUMP JUMPDEST SWAP3 SWAP2 POP POP JUMP JUMPDEST PUSH1 0x0 PUSH1 0xA0 DUP3 ADD SWAP1 POP PUSH2 0xAF9 PUSH1 0x0 DUP4 ADD DUP9 PUSH2 0x9ED JUMP JUMPDEST PUSH2 0xB06 PUSH1 0x20 DUP4 ADD DUP8 PUSH2 0x9ED JUMP JUMPDEST PUSH2 0xB13 PUSH1 0x40 DUP4 ADD DUP7 PUSH2 0x8FB JUMP JUMPDEST PUSH2 0xB20 PUSH1 0x60 DUP4 ADD DUP6 PUSH2 0x9ED JUMP JUMPDEST PUSH2 0xB2D PUSH1 0x80 DUP4 ADD DUP5 PUSH2 0x919 JUMP JUMPDEST SWAP7 SWAP6 POP POP POP POP POP POP JUMP JUMPDEST PUSH1 0x0 DUP2 MLOAD SWAP1 POP SWAP2 SWAP1 POP JUMP JUMPDEST PUSH1 0x0 DUP2 SWAP1 POP SWAP3 SWAP2 POP POP JUMP JUMPDEST PUSH1 0x0 DUP3 DUP3 MSTORE PUSH1 0x20 DUP3 ADD SWAP1 POP SWAP3 SWAP2 POP POP JUMP JUMPDEST PUSH1 0x0 PUSH2 0xB69 DUP3 PUSH2 0xB8E JUMP JUMPDEST SWAP1 POP SWAP2 SWAP1 POP JUMP JUMPDEST PUSH1 0x0 PUSH2 0xB7B DUP3 PUSH2 0xB8E JUMP JUMPDEST SWAP1 POP SWAP2 SWAP1 POP JUMP JUMPDEST PUSH1 0x0 DUP2 ISZERO ISZERO SWAP1 POP SWAP2 SWAP1 POP JUMP JUMPDEST PUSH1 0x0 PUSH20 0xFFFFFFFFFFFFFFFFFFFFFFFFFFFFFFFFFFFFFFFF DUP3 AND SWAP1 POP SWAP2 SWAP1 POP JUMP JUMPDEST PUSH1 0x0 DUP2 SWAP1 POP SWAP2 SWAP1 POP JUMP JUMPDEST PUSH1 0x0 JUMPDEST DUP4 DUP2 LT ISZERO PUSH2 0xBD6 JUMPI DUP1 DUP3 ADD MLOAD DUP2 DUP5 ADD MSTORE PUSH1 0x20 DUP2 ADD SWAP1 POP PUSH2 0xBBB JUMP JUMPDEST DUP4 DUP2 GT ISZERO PUSH2 0xBE5 JUMPI PUSH1 0x0 DUP5 DUP5 ADD MSTORE JUMPDEST POP POP POP POP JUMP JUMPDEST PUSH1 0x0 PUSH2 0xBF6 DUP3 PUSH2 0xBAE JUMP JUMPDEST SWAP2 POP PUSH32 0xFFFFFFFFFFFFFFFFFFFFFFFFFFFFFFFFFFFFFFFFFFFFFFFFFFFFFFFFFFFFFFFF DUP3 EQ ISZERO PUSH2 0xC29 JUMPI PUSH2 0xC28 PUSH2 0xC34 JUMP JUMPDEST JUMPDEST PUSH1 0x1 DUP3 ADD SWAP1 POP SWAP2 SWAP1 POP JUMP JUMPDEST PUSH32 0x4E487B7100000000000000000000000000000000000000000000000000000000 PUSH1 0x0 MSTORE PUSH1 0x11 PUSH1 0x4 MSTORE PUSH1 0x24 PUSH1 0x0 REVERT JUMPDEST PUSH32 0x4E487B7100000000000000000000000000000000000000000000000000000000 PUSH1 0x0 MSTORE PUSH1 0x32 PUSH1 0x4 MSTORE PUSH1 0x24 PUSH1 0x0 REVERT JUMPDEST PUSH1 0x0 DUP1 REVERT JUMPDEST PUSH1 0x0 PUSH1 0x1F NOT PUSH1 0x1F DUP4 ADD AND SWAP1 POP SWAP2 SWAP1 POP JUMP JUMPDEST PUSH32 0x7472616E736665722068617320616C7265616479206265656E2073656E740000 PUSH1 0x0 DUP3 ADD MSTORE POP JUMP JUMPDEST PUSH32 0x4D6F6E6579206E6F742073656E7420746F207468652075736572210000000000 PUSH1 0x0 DUP3 ADD MSTORE POP JUMP JUMPDEST PUSH32 0x6F6E6C7920617070726F76657220616C6C6F7765640000000000000000000000 PUSH1 0x0 DUP3 ADD MSTORE POP JUMP JUMPDEST POP JUMP JUMPDEST PUSH2 0xD2F DUP2 PUSH2 0xB5E JUMP JUMPDEST DUP2 EQ PUSH2 0xD3A JUMPI PUSH1 0x0 DUP1 REVERT JUMPDEST POP JUMP JUMPDEST PUSH2 0xD46 DUP2 PUSH2 0xB70 JUMP JUMPDEST DUP2 EQ PUSH2 0xD51 JUMPI PUSH1 0x0 DUP1 REVERT JUMPDEST POP JUMP JUMPDEST PUSH2 0xD5D DUP2 PUSH2 0xBAE JUMP JUMPDEST DUP2 EQ PUSH2 0xD68 JUMPI PUSH1 0x0 DUP1 REVERT JUMPDEST POP JUMP INVALID POP PUSH6 0x6E64696E6720 PUSH20 0x69676E6174757265732066726F6D206F74686572 KECCAK256 PUSH22 0x7365727320796574A264697066735822122021F89571 SWAP11 0xD MULMOD 0xE8 SIGNEXTEND MSTORE 0xE8 0x4D 0xE1 EXP PUSH11 0x4965284155558099FF51B1 0xD2 CALLCODE 0xD6 SWAP14 RETURN 0x24 PUSH5 0x736F6C6343 STOP ADDMOD SMOD STOP CALLER "
		},
		"gasEstimates": {
			"creation": {
				"codeDepositCost": "705600",
				"executionCost": "infinite",
				"totalCost": "infinite"
			},
			"external": {
				"approvals(address,uint256)": "3175",
				"approvers(uint256)": "5022",
				"createTransfer(uint256,address)": "infinite",
				"quorum()": "2407",
				"sendTransfer(uint256)": "infinite",
				"transfers(uint256)": "infinite"
			}
		},
		"methodIdentifiers": {
			"approvals(address,uint256)": "ffabc673",
			"approvers(uint256)": "d3650fb8",
			"createTransfer(uint256,address)": "4c12fa47",
			"quorum()": "1703a018",
			"sendTransfer(uint256)": "d1c68d1e",
			"transfers(uint256)": "9377d711"
		}
	},
	"abi": [
		{
			"inputs": [
				{
					"internalType": "address[]",
					"name": "_approvers",
					"type": "address[]"
				},
				{
					"internalType": "uint256",
					"name": "_quorum",
					"type": "uint256"
				}
			],
			"stateMutability": "payable",
			"type": "constructor"
		},
		{
			"inputs": [
				{
					"internalType": "address",
					"name": "",
					"type": "address"
				},
				{
					"internalType": "uint256",
					"name": "",
					"type": "uint256"
				}
			],
			"name": "approvals",
			"outputs": [
				{
					"internalType": "bool",
					"name": "",
					"type": "bool"
				}
			],
			"stateMutability": "view",
			"type": "function"
		},
		{
			"inputs": [
				{
					"internalType": "uint256",
					"name": "",
					"type": "uint256"
				}
			],
			"name": "approvers",
			"outputs": [
				{
					"internalType": "address",
					"name": "",
					"type": "address"
				}
			],
			"stateMutability": "view",
			"type": "function"
		},
		{
			"inputs": [
				{
					"internalType": "uint256",
					"name": "amount",
					"type": "uint256"
				},
				{
					"internalType": "address payable",
					"name": "to",
					"type": "address"
				}
			],
			"name": "createTransfer",
			"outputs": [],
			"stateMutability": "nonpayable",
			"type": "function"
		},
		{
			"inputs": [],
			"name": "quorum",
			"outputs": [
				{
					"internalType": "uint256",
					"name": "",
					"type": "uint256"
				}
			],
			"stateMutability": "view",
			"type": "function"
		},
		{
			"inputs": [
				{
					"internalType": "uint256",
					"name": "id",
					"type": "uint256"
				}
			],
			"name": "sendTransfer",
			"outputs": [
				{
					"internalType": "string",
					"name": "message",
					"type": "string"
				}
			],
			"stateMutability": "nonpayable",
			"type": "function"
		},
		{
			"inputs": [
				{
					"internalType": "uint256",
					"name": "",
					"type": "uint256"
				}
			],
			"name": "transfers",
			"outputs": [
				{
					"internalType": "uint256",
					"name": "id",
					"type": "uint256"
				},
				{
					"internalType": "uint256",
					"name": "amount",
					"type": "uint256"
				},
				{
					"internalType": "address payable",
					"name": "to",
					"type": "address"
				},
				{
					"internalType": "uint256",
					"name": "approvals",
					"type": "uint256"
				},
				{
					"internalType": "bool",
					"name": "sent",
					"type": "bool"
				}
			],
			"stateMutability": "view",
			"type": "function"
		}
	]
}